:020000040000FA
:0400000000001B28B9
:08000800FF00030E8301CA0092
:100010000A08CB008A018B18192A0C18232A0B19FD
:10002000132A8C1A282A14284B088A004A0E8300A7
:10003000FF0E7F0E09008316031303308500033083
:1000400086008730810021308C00A1309F0019305C
:100050009900243098008C168312031364009030AA
:10006000980002309F00860185018101CC01CD01FD
:10007000CF01D101A60164000730D8000030900004
:10008000F0308B008D236400013056230C30562352
:10009000063056236400AD236400013056238030BF
:1000A00056230F30C80004308A000030C900C52232
:1000B0004323C90AC80B5728C030562364000530B3
:1000C000C80004308A001030C900C5224323C90A81
:1000D000C80B652803276400A429CD1870285C2864
:1000E00064004D1D6D284D118030562301302519B7
:1000F0000030A519D930251ADA30A51A0330251B8E
:100100000230251C8528A51BED3043232E08E40072
:100110001930E5001E236708E1006608E200E922C5
:100120005C08303E43235D08303E43235E08303E8A
:1001300043235F08303E4323261EA928D71DA92844
:1001400020304323203043232030432320304323D7
:10015000C0282C302802D20020300318B3285208BF
:10016000003CD2002D3043235208E100E201E92295
:100170005E08303E43235F08303E43230430432370
:100180002D08E100E201E9225D08303E43235E08CC
:10019000303E4323CD19D1282C3043235F08303E15
:1001A0004323073043232708E100E201E9225D08E9
:1001B0000319DE28303E4323CD15DF28CD115E081C
:1001C000303E43235F08303E4323C1304323640065
:1001D000C0305623251814293708E1003808E200FA
:1001E000E9224D3043236F304323743043236F3073
:1001F00043233A3043235B08303E43235C08303EC0
:1002000043235D08303E43235E08303E43235F08AE
:10021000303E43236830432320304323453043237B
:10022000F02620304323A42906304323A61E1E298E
:10023000D71D1E292030432320303C292A08F03EB8
:10024000031C392906308A002B29F03E293E031869
:10025000392905308A0010302A02C900C522E10080
:10026000E201E9225E08303E43235F08303E43232B
:100270003D292D3043232D3043234B304323BE30C3
:10028000432320304323A51C61298316031345080B
:1002900083120313E4006430E5001E23E201670DBE
:1002A000660DE100E9225D08303E43235E08303EE2
:1002B00043235F08303E432325304323203043232C
:1002C0007A2920304323831603134408831203132F
:1002D000E4006430E5001E23E2016608E100E92243
:1002E0005E08303E43235F08303E432325304323DE
:1002F000203043232E08E4002F0DC800300DC90024
:10030000480D490DE5001E23E70DE60D670D660D4E
:10031000E100E201E922DD08031995295D08303E7C
:1003200043235E08303E43239D295E08303E43232D
:100330002E3043235F08303E4323BB304323DD0888
:100340000319A4292030432383160313A3309F00ED
:1003500083120313D0221F1BCD171F1FCD1383162B
:100360000313AE309F0083120313D0229F1BBB29BF
:100370000030D800F92983160313AA309F00831296
:100380000313D0229F1BC7290630D800F9298316F2
:100390000313A6309F0083120313D0229F1BD3297F
:1003A0000530D800F92983160313A4309F00831267
:1003B0000313D0229F1BDF290430D800F9298316AC
:1003C0000313A2309F0083120313D0229F1BEB293B
:1003D0000330D800F92983160313A1309F0083123C
:1003E0000313D0229F1BF7290230D800F9290130CE
:1003F000D800260830390319FD29CD1F022A051E11
:100400000516042A051A0512580B0B2AD71D0B2AAC
:10041000203043236D2805304323BD23981C6D28CD
:10042000181218166D280B11D703D00B1428CD10F5
:10043000C12A10108B100E08D4000F08D3008E01B3
:100440008F011014142810100C108E018F01142825
:100450008C121A08CC19572A4C194A2ACC18422A4D
:100460004C183A2ACF0A1A08D107AF3A031DC12AFD
:100470004C1414281A08D107013A031DC12ACF0AC7
:10048000CC1414281A08D107103C031DC12ACF0A26
:100490004C1514281A08D107CE00403C031CC12A71
:1004A00005304E02031CC12ACF0ACC151428CF0AEE
:1004B0004F084E0603196B2A4F088400A0308407AA
:1004C0001A08D10783160313800083120313FF3029
:1004D000D0004D1414281A085106031DC12A4D15C9
:1004E000CD14FF30D00083160313250883120313A5
:1004F000A50083160313260883120313A600831690
:100500000313280883120313A80083160313290872
:1005100083120313A900831603132E0883120313F7
:10052000AE00831603132A0883120313AA0083164E
:100530000313270883120313A700831603132C0841
:1005400083120313AC00831603132D0883120313C5
:10055000AD00831603132F0883120313AF00831615
:100560000313300883120313B000831603133708F4
:1005700083120313B700831603133808831203137F
:10058000B800CC01D101CF011428490882001030F5
:10059000D900DA016400DA0BCE2AD90BCA2A080086
:1005A00064000430D900DA01DA0BD72AD90BD42A37
:1005B00000000800FF30D900DA01DA0BE12A6400FC
:1005C000D90BDD2A08001930C9000000C90BE52A43
:1005D000080003101030E000DB01DD01DE01DF0167
:1005E000E10DE20DDF0DDE0DDD0DE00B092B5D08E9
:1005F0000F39DB005E08F039DC00DC0E5E080F39D5
:10060000DD005F08F039DE00DE0E5F080F39DF0025
:1006100000345F30840013235E30840013235D3088
:1006200084001323F02A03300007E300E31980005D
:1006300030300007E300E31B80000034E601E701EF
:10064000640803106518E607E60CE70CE518E607F2
:10065000E60CE70C6519E607E60CE70CE519E6077A
:10066000E60CE70C651AE607E60CE70CE51AE60768
:10067000E60CE70C651BE607E60CE70CE51BE60756
:10068000E60CE70C0034C70069230F3086054708E5
:10069000F039860405118515861586110F308605FB
:1006A000470EF0398604861586110800C7006923B5
:1006B0000F3086054708F039860405118511861527
:1006C00086110F308605470EF0398604861586118F
:1006D00008008316F0300604860083128511051584
:1006E000861506088611F039C6008615060E861195
:1006F0000F39C604C61B692B051183160F3006057A
:10070000860083120800842B852B862B872B882B51
:10071000892B8A2B8B2B8C2B0800861185110511B8
:10072000C722C7220F3086053030860483160F306B
:1007300006058600831286158611D022861586113D
:10074000E3228615861169230F3086052030860442
:100750008615861128305623080040305623403035
:10076000C80004308A001B30C900C5224323C90ACF
:10077000C80BB52B80305623080068305623580824
:10078000031DCE2B0830C80004308A005B30C9003E
:10079000C5224323C90AC80BC82B08008E30432347
:1007A0009F3043230530C80058084802031C031932
:1007B000DB2B9F30DC2B91304323C80BD42B9F3095
:1007C0004323803056230800703056238030562350
:0207D00008001F
:100800002034AF344334A934E034203457344534F1
:1008100047344134203432343034313435342034A8
:1008200020346E342F346334203420342034203488
:10083000203420342034803480348C349E349E34F0
:100840008C3480348034803484348E3491349134C8
:100850008E34843480348E349F349B34913491347C
:100860009B349F348E3480349F3480349F34803462
:100870009F34803480348C34923492348C3480347D
:100880008034803480348E349F3491349134913468
:10089000913491349F348034803480349F349F3439
:1008A0008034803480348034803480348034943494
:1008B0009434883480340E341F3471346A340434F0
:0608C0006A3471349F341C
:100A0000143415341534153416341634163417349A
:100A100017341834183418341934193419341A3472
:100A20001A341B341B341B341C341C341C341D344A
:100A30001D341E341E341E341F341F341F34203422
:100A400020342034213421342234223422342334FB
:100A500023342334243424342534253425342634D3
:100A600026342634273427342834283428342934AB
:100A7000293429342A342A342A342B342B342C3484
:100A80002C342C342D342D342D342E342E342F345C
:100A90002F342F3430343034303431343134323434
:100AA000323432343334333433343434343434340D
:100AB00035343534363436343634373437343734E5
:100AC000383438343934393439343A343A343A34BD
:100AD0003B343B343C343C343C343D343D343D3495
:100AE0003E343E343E343F343F344034403440346E
:100AF0004134413441344234423443344334433446
:100B0000443444344434453445344634463446341D
:100B100047344734473448344834483449344934F6
:100B20004A344A344A344B344B344B344C344C34CE
:100B30004D344D344D344E344E344E344F344F34A6
:100B4000503450345034513451345134523452347E
:100B50005234533453345434543454345534553457
:100B6000553456345634573457345734583458342F
:100B70005834593459345A345A345A345B345B3407
:100B80005B345C345C345C345D345D345E345E34E0
:100B90005E345F345F345F346034603461346134B8
:0E0BA00061346234623462346334633463342B
:100C00000D340D340E340F341034103411341234CA
:100C10001334143414341534163417341734183488
:100C200019341A341B341B341C341D341E341E3446
:100C30001F34203421342234223423342434253404
:100C40002634263427342834293429342A342B34C2
:100C50002C342D342D342E342F3430343034313480
:100C6000323433343434343435343634373437343E
:100C7000383439343A343B343B343C343D343E34FC
:100C80003F343F34403441344234423443344434BA
:100C900045344634463447344834493449344A3478
:100CA0004B344C344D344D344E344F345034503436
:100CB00051345234533454345434553456345734F4
:100CC0005834583459345A345B345B345C345D34B2
:100CD0005E345F345F346034613462346234633470
:100CE000643465346634663467346834693469342E
:100CF0006A346B346C346D346D346E346F347034EC
:100D000071347134723473347434743475347634A9
:100D100077347834783479347A347B347B347C3467
:100D20007D347E347F347F34803481348234823425
:100D300083348434853486348634873488348934E3
:100D40008A348A348B348C348D348D348E348F34A1
:100D5000903491349134923493349434943495345F
:100D6000963497349834983499349A349B349B341D
:100D70009C349D349E349F349F34A034A134A234DB
:100D8000A334A334A434A534A634A634A734A83499
:100D9000A934AA34AA34AB34AC34AD34AD34AE3457
:100DA000AF34B034B134B134B234B334B434B43415
:100DB000B534B634B734B834B834B934BA34BB34D3
:100DC000BC34BC34BD34BE34BF34BF34C034C13491
:100DD000C234C334C334C434C534C634C634C7344F
:100DE0003930C800260E0F39303EC802031C073EBA
:100DF00043233930C80026080F39303EC802031C8F
:100E0000073E432308005408E1005308E200E922AA
:100E10005B08303E43235C08303E43235D08303E90
:100E200043235E08303E43235F08303E4323203097
:100E30004323203043232030432320304323080022
:100E40007E088400A03084071A08D1078316031394
:060E500080008312031371
:02400E00213F50
:00000001FF
